:0C0000000C9418020C9400000C940000FA
:10000C000C9400000C9400000C9400000C94000064
:10001C000C9400000C9400000C9400000C94000054
:10002C000C9400000C9400000C9400000C94000044
:10003C000C9400000C9400000C9400000C94000034
:10004C000C9400000C9400000C9400000C94000024
:10005C000C9400000C94E4040C94000000000000CC
:10006C000000000000000000000000000000000084
:10007C000000000000000000000000000000000074
:10008C000000000000000000000000000000000064
:10009C0000000000000000000000008080800000D4
:1000AC00000000000000000000000000008080C084
:1000BC00C000000000000000000000000000000074
:1000CC000000000000000000000000000000000024
:1000DC000000000000000000000000000000000014
:1000EC000000000000000000000000000000000004
:1000FC0080C0E0F0F8FCF8E0000000000000000018
:10010C0000000000000000000080808080800080E3
:10011C008000000000808080808000FFFFFF0000D6
:10012C0000008080808000008080000080FFFF80C5
:10013C008000808000808080800080800000000033
:10014C0000808000008C8E84000080F8F8F880001D
:10015C00000000000000000000000000F0F0F0F0D3
:10016C00F0F0F0F0F0F0F0F0E0E0C08000E0FCFE29
:10017C00FFFFFF7FFFFFFFFFFF00000000000000FC
:10018C0000000000000000FEFFC70101010183FF19
:10019C00FF00007CFEC70101010183FFFFFF003857
:1001AC00FEC78301010183C7FFFF000001FFFF01B0
:1001BC000100FFFF0701010100007FFF800000002C
:1001CC00FFFF7F0000FFFFFF000001FFFFFF0100AA
:1001DC00000000000000000000000000030F3F7F43
:1001EC007FFFFFFFFFFFFFFFE7C7C78F8F9FBFFF9B
:1001FC00FFC3C0F0FFFFFFFFFFFCFCFCFCFCFCFCA2
:10020C00FCF8F8F0F0E0C000010303030303010362
:10021C0003000000000103030303010103010000BC
:10022C0000010303030301010303000000030300A7
:10023C00000003030000000000000001030303039F
:10024C000301000000010301000000030301000092
:10025C000000000000000000000000000000008012
:10026C00C0E0F0F9FFFFFFFFFF3F1F0F87C7F7FF4D
:10027C00FF1F1F3DFCF8F8F8F87C7DFFFFFFFFFF28
:10028C00FFFFFF7F3F0F0700303000000000000031
:10029C000000000000000000000000000000000052
:1002AC00FEFEFC000000000000000000000000004A
:1002BC00000000000000000000E0C0000000000092
:1002CC0000000000000030300000000000000000C2
:1002DC0000000000000000000000000000C0FEFF55
:1002EC00FFFFFFFFFFFFFFFF7F7F3F1F0F071F7FFA
:1002FC00FFFFF8F8FFFFFFFFFFFEF8E00000000132
:10030C000000000000000000FEFE000000FCFEFCEF
:10031C000C06060EFCF80000F0F81C0E0606060C87
:10032C00FFFFFF0000FEFE00000000FCFEFC0018BA
:10033C003C7E66E6CE84000006FFFF0606FCFEFC53
:10034C000C0606060000FEFE0000C0F8FC4E4646F9
:10035C00464E7C7840183C76E6CECC8000000000FF
:10036C000000000000000000000000000000000081
:10037C0001070F1F1F3F3F3F3F1F0F0300000000EF
:10038C0000000000000000000F0F0000000F0F0F16
:10039C00000000000F0F000003070E0C18180C06CD
:1003AC000F0F0F0000010F0E0C180C0F07010004AB
:1003BC000E0C180C0F070000000F0F00000F0F0F92
:1003CC000000000000000F0F00000007070C0C18C5
:1003DC001C0C060600040E0C180C0F0780AE80D502
:1003EC00808080A8803F80D380008040808D8014E6
:1003FC008020800080A180C880DA8012808180CF2C
:10040C0080D980F180DB804080A480A680AF07007B
:10041C0080030003680032008207E8030100B6077E
:10042C001A040000F894EE27EFBBF1E0F5BFE5BF2E
:10043C008DE0A2E0BB27ED938A95E9F780E098E088
:10044C00A0E0B1E0ED930197E9F7ECE1F4E08591E0
:10045C009591009761F0A591B59105901590BF010C
:10046C00F00105900D920197E1F7FB01F0CFE0E070
:10047C00EEBBEFEFEDBFE8E0EEBFC0E0D3E00C94D5
:10048C000D03AA93E881E064E0937C008BE18A95EC
:10049C00F1F7E0917A00E064E0937A00E0917A0061
:1004AC00E071E1F3E0917A00E061E0937A00E09191
:1004BC007800F09179002196089533244424E0E0EB
:1004CC00F4E03E164F0654F4A0E0B3E0A30DB41DC7
:1004DC00EC93E1E0F0E03E0E4F1EF1CF0895E0E822
:1004EC00E0930107E1E2E0930207E0E8E093030701
:1004FC00E0E0E0930407E0E8E0930507EFE7E09322
:10050C000607E0E8E0930707E2E2E0930807E0E87B
:10051C00E0930907E0E0E0930A07E0E8E0930B07BB
:10052C00E7E0E0930C070E946006ECE00E9467068F
:10053C0033244424E0E0F4E03E164F0624F5E0E4D6
:10054C00E093010777248824E0E8F0E07E168F061C
:10055C00A4F4E72DF82DEE5FF84FDF01E32DF42D19
:10056C0031963E2E4F2E3197E050FD4FE081EC93AB
:10057C00E1E0F0E07E0E8F1EE7CF0E946006E1E81E
:10058C000E946706D7CF0895BA93AA93AD81AA2388
:10059C007AF0AC81BD81A038E0E0BE074CF4AB81B1
:1005AC00AA2332F0AA81BB81A034E0E0BE070CF094
:1005BC002CC0AC81BD81E0E8F0E0EA1BFB0B31976D
:1005CC00EC83FD83AA81BB81E0E4F0E0EA1BFB0B2A
:1005DC003197EA83FB83E881F981E130A0E0FA07E7
:1005EC0021F40E946F06E1290EC0309729F40E9475
:1005FC006F06E095E12107C0E230A0E0FA0729F48C
:10060C000E946F06E125DB01EC932696089500E02D
:10061C0010E0E0E8E0936100E0E0E0936100E8E1E5
:10062C00E4B9E0E0E5B9E7B9E8B9E8E0EAB9E0E057
:10063C00EBB9E4BDE5BDE6BDE7BDE8BDE0938000E8
:10064C00E0938100E0938500E0938400E0938700C1
:10065C00E0938600E0938900E0938800E0938B00A0
:10066C00E0938A00E093B600E3EAE093B000E1E0A7
:10067C00E093B100E0E0E093B2000E948706E0E076
:10068C00E0936E00E0936F00E0937000E0936900DC
:10069C00EDBBE0936800E093C100E0E8E0BFE0E070
:1006AC00E0937B00E0937F00E0937A00ECBDE09355
:1006BC007E00E0E4E0937C00E3E8E0937A00E0E085
:1006CC00E0937B00A0E9B1E0E1D07894A8EEB3E030
:1006DC000E940B07ECE3EA93E2E8F7E0FA93EA9363
:1006EC00E2E30E946706E9DEEFE3F0E05E2E6F2E98
:1006FC0000245014600484F00E948D060E9496061B
:10070C008F010E949C069F010E94A206E52DF62DEA
:10071C0031975E2E6F2EECCF55246624E0E4F0E08A
:10072C005E166F0694F4E52DEE0FEE0F0E94870611
:10073C000E9496069F010E949C068F010E94B206A1
:10074C00E1E0F0E05E0E6F1EE9CF0E94C506E0E02E
:10075C00F0E00E94CA06EFE0F0E00E94CA06EEE16B
:10076C00F0E00E94CA06E2E2F0E00E94CA06E1E371
:10077C00F0E00E94CA06EFE3F0E00E94D106EEE141
:10078C00F0E00E94D1060E94DC060E94E4060E9462
:10079C00E9060E94E9060E94DC06ECE0F0E00E940B
:1007AC00F606ECE0F0E00E940007E7E6F0E00E94BD
:1007BC00F606E7E6F0E00E940007E4E7F0E00E94AE
:1007CC00F606E4E7F0E00E9400070E94E406E2E28D
:1007DC00F0E00E94D106E1E3F0E00E94D1060E9415
:1007EC0003070E94E406E1E3F0E0FA93EA93A1E048
:1007FC00B0E0CADE0E94E4060E940307EAE5F0E0DE
:10080C000E94F606EAE5F0E00E940007E6E2F0E05E
:10081C000E94F606E6E2F0E00E940007A2E3B0E0D8
:10082C000E940B07EFE3F0E05E2E6F2E00245014B5
:10083C0060049CF0E52DEE0FEE0F0E9487060E94DF
:10084C009C068F010E9496069F010E94B206E52D20
:10085C00F62D31975E2E6F2EE9CF55246624E0E4F9
:10086C00F0E05E166F067CF40E948D060E949C06DA
:10087C009F010E9496068F010E94A206E1E0F0E023
:10088C005E0E6F1EECCF2BDE2ECFFFCFBA93AA934A
:10089C001A93F19AE7E0E093B607E0E0E093BF0724
:1008AC00E093C007E093C107E093C207449A459ACE
:1008BC00E093BC00E091B900EC7FE093B900E981D2
:1008CC00FA81A0EABFE00E9438071E2F183008F00A
:1008DC0018501093B800E091BC00E078E564E09308
:1008EC00BC00188123960895AA932497F19B63C0AA
:1008FC00EA85EE0FE093B707E885F985E093B80732
:10090C00F093B907E0E0E093B407EF81E093BA0706
:10091C00ED81FE81E093BB07F093BC07E0E0E09330
:10092C00B507EC81E093BD07E6E0E093B607789459
:10093C00EF81E03081F0E885F985309709F43BC010
:10094C00EC81E03021F0AD81BE81109709F001C03F
:10095C0032C0F09A0DC0EC81E03039F1ED81FE81AE
:10096C00309749F1E091B707E160E093B707F09851
:10097C00F198E091BC00EF70E06AE093BC00E0E21B
:10098C00F1EA67E070E00E946307F1990EC00E94E3
:10099C005E073197604070400E94630729F4E5E0E0
:1009AC00E093B607F19A07C0F0CFA091B607E0E04C
:1009BC000E94330701C0E0E02B9608950A921A9228
:1009CC00FA926A937A938A939A93AA93BA93EA9334
:1009DC00FA93EFB7EA930E9468071091B50700915C
:1009EC00B4073091BA072091B607E12FA091BB074D
:1009FC00B091BC07F0E0EA0FFB1FAF01E091B9002A
:100A0C00E87FE83011F420E002C0E03119F4E09105
:100A1C00B70710C0E83111F0E83241F5031798F42C
:100A2C00E02F0F5FA091B807B091B907F0E0AE0FBF
:100A3C00BF1FEC91E093BB00E091BC00EF70E0684D
:100A4C00E093BC0012C0E091BD071E1768F4E09162
:100A5C00B707E160E093B707F098E091BC00EF7046
:100A6C00E06AE093BC000DC138C00BC1E03531F435
:100A7C00E091BB00DA01EC931F5F02C0E03489F413
:100A8C00E091BD07E1501E1728F0E091BC00EF701B
:100A9C00E06804C0E091BC00EF70E06CE093BC0037
:100AAC00F0C0E83531F4E091BB00DA01EC931F5F44
:100ABC0002C0E03209F402C0E03309F402C0E834A9
:100ACC0069F4203051F4F09B03C0031728F005C0E3
:100ADC00E091BD071E1708F424E0CCC0E83331F4D4
:100AEC0022E0E091BC00EF70E068C8C0E83611F07D
:100AFC00E83711F422E005C0E03611F0E037A1F43C
:100B0C0020E010E0F098E091BE07E03031F421E0F5
:100B1C00E091BC00EF70E06804C0E091BC00EF70A5
:100B2C00E06CE093BC00ADC0E03811F0E03939F571
:100B3C00F09B02C021E09EC0E091BB00DA01EC9377
:100B4C001F5FE091BE071E17C0F4E091BF07F09144
:100B5C00C007309711F426E08DC0A0E0E091BF07EC
:100B6C00F091C0070995E03039F0E091BC00EF70CE
:100B7C00E06CE093BC0085C001C0F09A02C0E8387C
:100B8C0009F402C0E83939F4E091BC00EF70E06878
:100B9C00E093BC0076C0E03AB1F4E091BC00EF7099
:100BAC00E06CE093BC00F19AE091BF07F091C007B4
:100BBC00309739F0A1E0E091BF07F091C00709959B
:100BCC0001C026E05EC0E03B11F422E002C0E83A2E
:100BDC00B1F4E091C107F091C207309759F0A0E051
:100BEC00E091C107F091C20709953E2FE03011F05A
:100BFC0020E002C026E03EC000E0F09802C0E83BD6
:100C0C00F9F4F09B02C021E035C0E02F0F5FA091FA
:100C1C00B807B091B907F0E0AE0FBF1FEC91E093AD
:100C2C00BB00031728F4E091BC00EF70E06C05C02A
:100C3C00F09AE091BC00EF70E068E093BC0021C03A
:100C4C00E03C11F0E83C99F4E091BC00EF70E06CF2
:100C5C00E093BC00E091C107F091C207309731F0EE
:100C6C00A1E0E091C107F091C207099509C0E030FD
:100C7C0041F423E0E091BC00EF70E06DE093BC0028
:100C8C00F19A1093B5070093B4072093B6073093ED
:100C9C00BA070E946F072696E991EFBFF991E99187
:100CAC00B991A9919991899179916991F99019903A
:100CBC0009901895ECE3EA93E1E0F7E0FA93EA93F4
:100CCC000895EA93E0E0F7E0FA93EA93A0E00C943D
:100CDC007A04AA81BB81E8E0F0E00E944B070E94F5
:100CEC0023070E942107AC81BD81EA0FFB1FE05056
:100CFC00FD4FBF011080EA81E770A1E00E94190747
:100D0C000895E093B300E0E0E093B4000895E0E0D0
:100D1C00E093B300E52DEE0FEE0FE093B4000895D1
:100D2C00A0E00E9447020E942A070895A1E00E94B9
:100D3C0047020E942A070895F801E21BF30BE05CBE
:100D4C00FF4F8F01205E3F4F1A930A933A932A93D9
:100D5C00A1E0B0E00C94CA02F901E01BF10BE05CDD
:100D6C00FF4F8F01E0E2F0E0E21BF30B9F011A93BF
:100D7C000A933A932A93A1E0B0E00C94CA02E0E4FF
:100D8C00F0E0FA93EA930895FA93EA93A1E0B0E0C5
:100D9C000E94CA02F4CFFA93EA93A1E0B0E00E9459
:100DAC00CA02EDE4F0E0FA93EA930895E2E2F0E08F
:100DBC00FA93EA93A1E0B0E00C94CA02E3E3F0E00A
:100DCC00FA93EA930895EEE1F0E0FA93EA93A1E046
:100DDC00B0E00E94CA02E9E1F0E0FA93EA930895C8
:100DEC00FA93EA93EEE1F0E0FA93EA93A1E0B0E033
:100DFC000C94CA02FA93EA93D9CFEFE0F0E0FA939D
:100E0C00EA93A1E0B0E00C94CA02109639F080EDA0
:100E1C0097E00197F1F7A8951197C9F70895F19507
:100E2C00E195F0400895EE230E2EEA2F19F0EE0F07
:100E3C000A94E9F70895EE0FFF1FEE0FFF1FEE0F58
:100E4C00FF1FEE0FFF1F0895F695E795F695E795B2
:100E5C00F695E795F695E7950895EA17E1E009F020
:100E6C00EE2708950024112490E1AA0FBB1F001C4B
:100E7C00111C0E1A1F0A18F40E0E1F1E01C0A160C1
:100E8C009A9599F7FD01D001089504D0EBDF0EF48B
:100E9C00C6DF0895E894F7FF02C0C1DF6894B7FF7E
:100EAC0006C0A095B095119600F8039400FA089529
:100EBC00E881F9816A817B810895E883F9836A83EB
:100ECC007B8308955A934A933A932A931A930A93DD
:100EDC0008955D814C813B812A8119810881089597
:00000001FF
