:060000000C94A4040C9412
:1000060000000C9400000C9400000C9400000C946A
:1000160000000C9400000C9400000C9400000C945A
:1000260000000C9400000C9400000C9400000C944A
:1000360000000C9400000C9400000C9400000C943A
:1000460000000C9400000C9400000C9400000C942A
:1000560000000C9400000C9400000C94CC090C9445
:10006600000000000000003E5B4F5B3E3E6B4F6BA6
:100076003E1C3E7C3E1C183C7E3C181C577D571C83
:100086001C5E7F5E1C00183C1800FFE7C3E7FF00FC
:1000960018241800FFE7DBE7FF30483A060E26294A
:1000A600792926407F050507407F05253F5A3CE70D
:1000B6003C5A7F3E1C1C08081C1C3E7F14227F22D3
:1000C600145F5F005F5F06097F017F006689956A9E
:1000D600606060606094A2FFA29408047E04081029
:1000E600207E201008082A1C08081C2A08081E1052
:1000F6001010100C1E0C1E0C30383E3830060E3E0A
:100106000E06000000000000005F00000007000768
:1001160000147F147F14242A7F2A12231308646292
:1001260036495620500008070300001C22410000F3
:1001360041221C002A1C7F1C2A08083E0808008051
:1001460070300008080808080000606000201008E9
:1001560004023E5149453E00427F400072494949EA
:10016600462141494D331814127F1027454545391C
:100176003C4A494931412111090736494949364620
:100186004949291E00001400000040340000000800
:1001960014224114141414140041221408020159A3
:1001A60009063E415D594E7C1211127C7F49494930
:1001B600363E414141227F4141413E7F49494941C5
:1001C6007F090909013E414151737F0808087F00F4
:1001D600417F41002040413F017F081422417F407A
:1001E6004040407F021C027F7F0408107F3E414151
:1001F600413E7F090909063E4151215E7F091929C1
:1002060046264949493203017F01033F4040403FAA
:100216001F2040201F3F4038403F631408146303EB
:10022600047804036159494D43007F41414102046A
:10023600081020004141417F040201020440404071
:100246004040000307080020545478407F28444467
:10025600383844444428384444287F385454541881
:1002660000087E090218A4A49C787F08040478007C
:10027600447D40002040403D007F1028440000415E
:100286007F40007C047804787C0804047838444471
:100296004438FC1824241818242418FC7C08040468
:1002A60008485454542404043F44243C4040207CD1
:1002B6001C2040201C3C4030403C44281028444C24
:1002C6009090907C4464544C4400083641000000F1
:1002D600770000004136080002010204023C262392
:1002E600263C00000000007F010101030000000021
:1002F60000000000000000000000000000000000F8
:1003060000000000000000000000000000000000E7
:1003160000000000000000000000000000000000D7
:1003260000000000000000000000000000000000C7
:1003360000000000000000000000000000000000B7
:1003460000000000000000000000000000000000A7
:100356000000000000000000000000000000000097
:100366000000000000000000000000000000000087
:100376000000000000000000000000000000000077
:100386000000000000000000000000000000000067
:1003960000000000000000000000007F01010103D2
:1003A600000000000000000000007F4949494900A4
:1003B600000000003E494941220000000000000004
:1003C6000000000000000000000000000000437E66
:1003D60043000000000000000000000000417F41D3
:1003E6000000447D40007C0404040C000000000072
:1003F60000000000000000000000385454540800BB
:10040600000000003854544428000000000000009A
:100416000000000000000000000000000000457C15
:1004260041007E1111117E7F494949337F4949496F
:10043600367F01010103E0514F41FF7F4949494998
:1004460077087F087749494949367F1008047F7C39
:100456002112097C7F0814224120413F017F7F023F
:100466000C027F7F0808087F3E4141413E7F010123
:10047600017F7F090909063E4141412201017F01B1
:1004860001274848483F1C227F221C631408146336
:100496007F404040FF070808087F7F407F407F7FFE
:1004A600407F40FF017F4848307F4830007F7F48CB
:1004B600483000224149493E7F083E413E462919BF
:1004C600097F20545454783C4A4A49317C54542874
:1004D600007C0404040CE0544C44FC385454540886
:1004E6006C107C106C44445454287C2010087C7892
:1004F600422412787C1028440020443C047C7C086A
:1005060010087C7C1010107C38444444387C040469
:10051600047C7C14141408384444444404047C04C5
:10052600040C5050503C18247E24184428102844AB
:100536007C404040FC0C1010107C7C407C407C7C55
:10054600407C40FC047C5050207C5020007C7C5039
:1005560050200028445454387C1038443808543409
:10056600147C0000000000000000000000000000F5
:100576000000000000000000000000000000000075
:100586000000000000000000000000000000000065
:100596000000000000000000000000000000000055
:1005A60000808080000000000000000000000000C5
:1005B6000000008080C0C0000000000000000000B5
:1005C6000000000000000000000000000000000025
:1005D6000000000000000000000000000000000015
:1005E6000000000000000000000000000000000005
:1005F60000000000000080C0E0F0F8FCF8E0000019
:100606000000000000000000000000000000008064
:100616008080808000808000000000808080808054
:1006260000FFFFFF000000008080808000008080C7
:10063600000080FFFF808000808000808080800036
:1006460080800000000000808000008C8E84000006
:1006560080F8F8F8800000000000000000000000AC
:100666000000F0F0F0F0F0F0F0F0F0F0F0F0E0E084
:10067600C08000E0FCFEFFFFFF7FFFFFFFFFFF00E3
:1006860000000000000000000000000000FEFFC7A0
:100696000101010183FFFF00007CFEC7010101018A
:1006A60083FFFFFF0038FEC78301010183C7FFFFF9
:1006B600000001FFFF010100FFFF0701010100002B
:1006C6007FFF80000000FFFF7F0000FFFFFF0000AC
:1006D60001FFFFFF01000000000000000000000015
:1006E6000000030F3F7F7FFFFFFFFFFFFFFFE7C70E
:1006F600C78F8F9FBFFFFFC3C0F0FFFFFFFFFFFC49
:10070600FCFCFCFCFCFCFCF8F8F0F0E0C00001038B
:1007160003030303010303000000000103030303B3
:1007260001010301000000010303030301010303A8
:1007360000000003030000000303000000000000A7
:10074600000103030303030100000001030100008D
:10075600000303010000000000000000000000008C
:10076600000000000080C0E0F0F9FFFFFFFFFF3F40
:100776001F0F87C7F7FFFF1F1F3DFCF8F8F8F87C2F
:100786007DFFFFFFFFFFFFFFFF7F3F0F07003030BA
:100796000000000000000000000000000000000053
:1007A600000000000000FEFEFC000000000000004B
:1007B600000000000000000000000000000000E053
:1007C600C000000000000000000000003030000003
:1007D6000000000000000000000000000000000013
:1007E600000000C0FEFFFFFFFFFFFFFFFFFF7F7F50
:1007F6003F1F0F071F7FFFFFF8F8FFFFFFFFFFFEFA
:10080600F8E0000000010000000000000000FEFE0D
:10081600000000FCFEFC0C06060EFCF80000F0F8DA
:100826001C0E0606060CFFFFFF0000FEFE00000081
:1008360000FCFEFC00183C7E66E6CE84000006FF47
:10084600FF0606FCFEFC0C0606060000FEFE000087
:10085600C0F8FC4E4646464E7C7840183C76E6CEBE
:10086600CC80000000000000000000000000000036
:1008760000000000000001070F1F1F3F3F3F3F1F02
:100886000F030000000000000000000000000F0F32
:100896000000000F0F0F000000000F0F00000307FD
:1008A6000E0C18180C060F0F0F0000010F0E0C1877
:1008B6000C0F070100040E0C180C0F070000000FA8
:1008C6000F00000F0F0F0000000000000F0F0000C8
:1008D6000007070C0C181C0C060600040E0C180C5E
:1008E6000F07200080AE80D5808080A8803F80D30F
:1008F60080008040808D80148020800080A180C888
:1009060080DA8012808180CF80D980F180DB8040C0
:1009160080A480A680AFD43A0000070080030603B7
:10092600680501000A07E80832009407EA08030090
:1009360000031C09030003031C090100C807200962
:100946000000F894EE27EFBBF1E0F5BFE5BF8DE0C0
:10095600A2E0BB27ED938A95E9F780E098E0A0E056
:10096600B1E0ED930197E9F7E2E2F9E0859195911F
:10097600009761F0A591B59105901590BF01F00122
:1009860005900D920197E1F7FB01F0CFE0E0EEBB99
:10099600EFEFEDBFE8E0EEBFC0E0D3E00C947906E0
:1009A6000E94480B0030E4E01E074CF4A6E0B3E0DA
:1009B600A00FB11FE0E0EC930F5F1F4FF3CF09913B
:1009C60019910895BA93AA93AD81AA237AF0AC81BE
:1009D600BD81A038E0E0BE074CF4AB81AA2332F01B
:1009E600AA81BB81A034E0E0BE070CF02CC0AC812C
:1009F600BD81E0E8F0E0EA1BFB0B3197EC83FD8359
:100A0600AA81BB81E0E4F0E0EA1BFB0B3197EA83A5
:100A1600FB83E881F981E130A0E0FA0721F40E9426
:100A26004D0BE1290EC0309729F40E944D0BE0953D
:100A3600E12107C0E230A0E0FA0729F40E944D0B3D
:100A4600E125DB01EC9326960895AA930E94480BB4
:100A56000530E0E01E0714F5ED81FE81A6E0B0E06A
:100A66000E945C0DDF01EB81FC810E943C0D0E941F
:100A76003A0DEA0FFB1FE00FF11FEA5FFC4FBF01C3
:100A8600AA81E5E0EA9FF001E00FF11FE859FF4F68
:100A9600E491DB01EC930F5F1F4FDACF19810881D8
:100AA60027960895BA93AA930E94480BEA81FB8180
:100AB6000E171F07ACF4F801A885B985EA0FFB1FCE
:100AC600FA93EA93E885F985FA93EA93F801A885FB
:100AD600B985AE0FBF1FAC91B8DF0F5F1F4FE6CFD2
:100AE600198108812A960895BA93AA9322970E949B
:100AF600950DAC85BD85A038E0E0BE0724F0EFE794
:100B0600F0E0EC87FD87AD85AA231AF4E0E0EC87D8
:100B1600ED87A889B989A038E0E0BE0724F0EFE7A1
:100B2600F0E0E88BF98BA989AA231AF4E0E0E88BB8
:100B3600E98BAA85BB85A034E0E0BE0724F0EFE38D
:100B4600F0E0EA87FB87AB85AA231AF4E0E0EA87A0
:100B5600EB87AE85BF85A034E0E0BE0724F0EFE367
:100B6600F0E0EE87FF87AF85AA231AF4E0E0EE8770
:100B7600EF87EC85FD85A889B989EA17FB071CF480
:100B86004FEF5FEF02C041E050E0EA85FB85AE859E
:100B9600BF85EA17FB071CF4EFEFFFEF02C0E1E0A9
:100BA600F0E0EE83FF830E94650BD901A00FB11F11
:100BB6000E94910D34F50024001601066CF4F8012C
:100BC600D9010E94740D32973CF4FA01A889B989BB
:100BD600EA0FFB1FE88BF98B00240216030674F458
:100BE600F901D8010E94740D329744F4EE81FF8119
:100BF600AE85BF85EA0FFB1FEE87FF870E94650B58
:100C0600D4CF0E949C0D62960895AA93E881E06471
:100C1600E0937C008BE18A95F1F7E0917A00E0643D
:100C2600E0937A00E0917A00E071E1F3E0917A00D6
:100C3600E061E0937A00E0917800F09179002196E6
:100C46000895E0E8E0931307E1E2E0931407E0E893
:100C5600E0931507E0E0E0931607E0E8E093170756
:100C6600EFE7E0931807E0E8E0931907E2E2E09384
:100C76001A07E0E8E0931B07E0E0E0931C07E0E8D2
:100C8600E0931D07E7E0E0931E070E94870BECE068
:100C96000E948E0B33244424E0E0F4E03E164F0617
:100CA60024F5E0E4E093130777248824E0E8F0E0F5
:100CB6007E168F06A4F4E72DF82DEC5EF84FDF01C3
:100CC600E32DF42D31963E2E4F2E3197EA5FFC4FE1
:100CD600E081EC93E1E0F0E07E0E8F1EE7CF0E940C
:100CE600870BE1E80E948E0BD7CF0895E0E8E093EA
:100CF6006100E0E0E0936100E8E1E4B9E0E0E5B935
:100D0600E7B9E8E0E8B9EAB9E0E0EBB9E4BDE5BD8A
:100D1600E6BDE7BDE8BDE0938000E0938100E09387
:100D26008500E0938400E0938700E0938600E093DB
:100D36008900E0938800E0938B00E0938A00E093BB
:100D4600B600E3EAE093B000E1E0E093B100E0E052
:100D5600E093B2000E94960BE0E0E0936E00E09311
:100D66006F00E0937000E0936900EDBBE0936800CC
:100D7600E093C100E0E8E0BFE0E0E0937B00E093B1
:100D86007F00E0937A00ECBDE0937E00E0E4E09320
:100D96007C00E3E8E0937A00E0E0E0937B00A0E9E2
:100DA600B1E00E9434097894ECE3EA93E4E9F7E0D1
:100DB600FA93EA93E2E30E948E0BECE3F0E09E2EB8
:100DC600AF2EA3E022DFE0931007F0931107A09166
:100DD6001007B0911107EBE0F0E00E94740DBE2EF3
:100DE600CF2EA0911007B0911107E7E0F0E00E9426
:100DF600740DE0931007F0931107002409140A04F8
:100E06000CF0FDC1CDDDEFE3F0E05E2E6F2E002489
:100E160050146004F4F00E949C0B0E94A50B0E94E3
:100E2600AB0B0E94B30B0E94B80B14F40E94C10BCB
:100E36000E94C60B14F40E94CD0B0E94D20B0E9496
:100E4600E60B0E94EB0BE52DF62D31975E2E6F2EED
:100E5600DECF55246624E0E4F0E05E166F060CF063
:100E660053C0E52DEE0FEE0F0E94960B0E940F0C5D
:100E76000E94170C0E941D0C14F40E94C10B0E94C4
:100E8600C60B14F40E94CD0B0E94D20B0E94290CB3
:100E9600052C0628A1F50E94170CA0E00E94510C13
:100EA6004CF40E94660CE2E0F0E00E946D0CADE2AC
:100EB600CCDD04C0E0E0F1E0DE1AEF0AE3E6F0E0A4
:100EC600ED15FE0534F40E94740C0E94770CA6E51D
:100ED60015C00E947D0C1CF4E3E0F0E00BC00E94FC
:100EE600820CE3E0F0E00E946D0CA52DA05DADDD67
:100EF600E4E0F0E0FA93EA930E94910CA6DDE1E0CB
:100F0600F0E05E0E6F1EA7CF0E94980C0E949D0C0B
:100F16000E94A20C0E94A70C0E94A20C0E94AC0C7C
:100F26000E94A20C0E94B10C0E94A20C0E94B60C58
:100F36000E94A20CEFE3F0E0FA93EA930E94BB0C46
:100F46000E94AC0C0E94BB0C0E94B10C0E94C60C05
:100F56000E94AC0C0E94C60C0E94B10C0E94D30CDD
:100F66000E94AC0C0E94D30C0E94B10C0E94E20CB1
:100F76000E94AC0C0E94E20C0E94B10C0E94ED0C87
:100F86000E94AC0C0E94ED0C0E94B10C0E94FA0C5F
:100F96000E94B10C0E94FA0C0E94AC0C0E94BB0C81
:100FA6000E94B60C0E94BB0C0E94A70C0E94E20C89
:100FB6000E94B60C0E94E20C0E94A70CA1E0B0E0D1
:100FC60001DDE0E0F0E00E946D0CE0E0F3E00E945D
:100FD600090DE0E1F0E00E946D0CE3E0F3E00E9411
:100FE600090D0E949D0C0E949D0CABE22EDDE4E1F2
:100FF600F0E00E940F0DADE228DD0E94120D21F0F7
:10100600E8E0F7E09E2EAF2EE92DFA2D31979E2EC1
:10101600AF2EACE2B0E00E94240D88E795E0019780
:10102600F1F7EFE3F0E05E2E6F2E0024501460041B
:10103600ECF0E52DEE0FEE0F0E94960B0E94170CBA
:101046000E940F0C0E941D0C14F40E94C10B0E94FA
:10105600C60B14F40E94CD0B0E94D20B0E94290CE1
:10106600E52DF62D31975E2E6F2EDFCF55246624A3
:10107600E0E4F0E05E166F060CF052C00E949C0B96
:101086000E94AB0B0E94A50B0E94B30B0E94B80BEB
:1010960014F40E94C10B0E94C60B14F40E94CD0BDF
:1010A6000E94D20B0E94E60B0E94EB0B052C062831
:1010B60091F50E94A50BA1E00E94510C4CF40E94F0
:1010C600660CE2E1F0E00E946D0CADE2BEDC04C00D
:1010D600E0E0F1E0DE1AEF0AE3E6F0E0ED15FE05EA
:1010E60034F40E94740C0E94770CA6E513C00E948B
:1010F6007D0C1CF4E3E1F0E009C00E94820C0E9422
:10110600740CA52DA05DA1DCE4E1F0E0FA93EA936E
:101116000E94910C9ADCE1E0F0E05E0E6F1EA8CF13
:10112600E0910E07F0910F070E942E0DDF01E0916E
:101136001007F09111070E941F0D34F4E0E1F0E072
:101146000E940F0DA0E308C00E94820CE0E1F0E0CF
:101156000E940F0DA52DA05D78DCE2E1F0E00E9473
:101166000F0DAD2DA05D71DCE1E1F0E00E940F0DE9
:10117600AEE26BDCE3E1F0E00E940F0DA6E765DC72
:10118600E0911007F0911107A0910C07B0910D079F
:101196000E941F0D34F4E1E0F0E00E940F0DA0E381
:1011A60008C00E94820CE1E0F0E00E940F0DA52D20
:1011B600A05D4BDCE3E0F0E00E940F0DAD2DA05DDD
:1011C60044DCE2E0F0E00E940F0DAEE23EDCE4E03B
:1011D600F0E00E940F0DA6E738DC33DD0E94120D09
:1011E60021F0E0EBF4E09E2EAF2EE0E0E0930E0758
:1011F600E0930F07E0930C07E0930D07FECDE0E8C0
:10120600E0931307EEEAE09314070E94870BE2E0EF
:101216000E948E0BF894E0E0E093BC00EAB9E4B9D2
:10122600E7B9EBB9E8B9E5B9E093B600E093B000E9
:10123600E093B100E0937C00E0937A00E0E1E5BF43
:1012460003D00E942B09FFCFE3B7E160E3BF089507
:10125600E3B7E17FE460E3BFEFB778948895EFBF2B
:101266000895BA93AA931A93F19AE7E0E093C80710
:10127600E0E0E093D107E093D207E093D307E09351
:10128600D407449A459AE093BC00E091B900EC7FFC
:10129600E093B900E981FA81A0EABFE00E94610DFE
:1012A6001E2F183008F018501093B800E091BC00BB
:1012B600E078E564E093BC00188123960895AA932C
:1012C6002497F19B63C0EA85EE0FE093C907E88592
:1012D600F985E093CA07F093CB07E0E0E093C607F1
:1012E600EF81E093CC07ED81FE81E093CD07F0938B
:1012F600CE07E0E0E093C707EC81E093CF07E6E096
:10130600E093C8077894EF81E03081F0E885F985AD
:10131600309709F43BC0EC81E03021F0AD81BE810D
:10132600109709F001C032C0F09A0DC0EC81E03090
:1013360039F1ED81FE81309749F1E091C907E1600D
:10134600E093C907F098F198E091BC00EF70E06A6D
:10135600E093BC00E0E2F1EA67E070E00E948C0DE9
:10136600F1990EC00E94870D3197604070400E942F
:101376008C0D29F4E5E0E093C807F19A07C0F0CF99
:10138600A091C807E0E00E94430D01C0E0E02B9663
:1013960008950A921A92FA926A937A938A939A9382
:1013A600AA93BA93EA93FA93EFB7EA930E94950D3C
:1013B6001091C7070091C6073091CC072091C80746
:1013C600E12FA091CD07B091CE07F0E0EA0FFB1F09
:1013D600AF01E091B900E87FE83011F420E002C0E7
:1013E600E03119F4E091C90710C0E83111F0E83294
:1013F60041F5031798F4E02F0F5FA091CA07B0914B
:10140600CB07F0E0AE0FBF1FEC91E093BB00E0917D
:10141600BC00EF70E068E093BC0012C0E091CF071B
:101426001E1768F4E091C907E160E093C907F098D8
:10143600E091BC00EF70E06AE093BC000DC138C0DB
:101446000BC1E03531F4E091BB00DA01EC931F5F8C
:1014560002C0E03489F4E091CF07E1501E1728F06E
:10146600E091BC00EF70E06804C0E091BC00EF7052
:10147600E06CE093BC00F0C0E83531F4E091BB00CD
:10148600DA01EC931F5F02C0E03209F402C0E033D8
:1014960009F402C0E83469F4203051F4F09B03C02B
:1014A600031728F005C0E091CF071E1708F424E0C3
:1014B600CCC0E83331F422E0E091BC00EF70E06884
:1014C600C8C0E83611F0E83711F422E005C0E0366E
:1014D60011F0E037A1F420E010E0F098E091D00799
:1014E600E03031F421E0E091BC00EF70E06804C028
:1014F600E091BC00EF70E06CE093BC00ADC0E0385A
:1015060011F0E03939F5F09B02C021E09EC0E09170
:10151600BB00DA01EC931F5FE091D0071E17C0F401
:10152600E091D107F091D207309711F426E08DC0F3
:10153600A0E0E091D107F091D2070995E03039F0AB
:10154600E091BC00EF70E06CE093BC0085C001C088
:10155600F09A02C0E83809F402C0E83939F4E0919B
:10156600BC00EF70E068E093BC0076C0E03AB1F4EE
:10157600E091BC00EF70E06CE093BC00F19AE09162
:10158600D107F091D207309739F0A1E0E091D10769
:10159600F091D207099501C026E05EC0E03B11F448
:1015A60022E002C0E83AB1F4E091D307F091D40703
:1015B600309759F0A0E0E091D307F091D407099550
:1015C6003E2FE03011F020E002C026E03EC000E0F1
:1015D600F09802C0E83BF9F4F09B02C021E035C068
:1015E600E02F0F5FA091CA07B091CB07F0E0AE0FD6
:1015F600BF1FEC91E093BB00031728F4E091BC00F9
:10160600EF70E06C05C0F09AE091BC00EF70E06806
:10161600E093BC0021C0E03C11F0E83C99F4E09175
:10162600BC00EF70E06CE093BC00E091D307F09152
:10163600D407309731F0A1E0E091D307F091D407B9
:10164600099509C0E03041F423E0E091BC00EF7059
:10165600E06DE093BC00F19A1093C7070093C607AC
:101666002093C8073093CC070E949C0D2696E991DB
:10167600EFBFF991E991B991A991999189917991E0
:101686006991F9901990099018951A930A9300E0B8
:1016960010E00895AA81BB81E8E0F0E00E94740D95
:1016A6000E943C0D0E943A0DAC81BD81EA0FFB1FE2
:1016B600EA5FFC4FBF011080EA81E770A1E00E945B
:1016C600320D0895A889B989EC85FD85EA1BFB0BC7
:1016D600DF01FA010E945C0D8F01AE85BF85EA85A8
:1016E600FB85EA1BFB0BAE81BF810E945C0D9F014F
:1016F600E889F989FA93EA93E889F989FA93EA93EA
:10170600AC85BD850C94E504ECE3EA93E3E1F7E0F0
:10171600FA93EA930895EA93E2E1F7E0FA93EA93FB
:10172600A0E00C946209E093B300E0E0E093B4001B
:101736000895E0E0E093B300E52DEE0FEE0FE093A1
:10174600B4000895A0E00E940806DE2EEF2E08954C
:10175600A1E00E940806E0930607F09307070895A4
:10176600A0910607B09107070895DA1AEB0AE091EF
:101776000E07F0910F07DE16EF060895D0920E07BA
:10178600E0920F070895E0910C07F0910D07ED1513
:10179600FE050895D0920C07E0920D070895AD2D31
:1017A600BE2DE0E1F0E00E94740DE05CFF4FDE2EFE
:1017B600EF2ED6DFE0E1F0E00E94740DE09306071D
:1017C600F09307070895E0910607F091070708953B
:1017D600B096E0930607F0930707E0910807F091AB
:1017E6000907FA93EA93E0910A07F0910B07FA9337
:1017F600EA93EA92DA92E7DFFA93EA93A1E0B0E09D
:101806000E947705D0920807E0920907DCDFE09393
:101816000A07F0930B070895A0E00E940806E093DC
:101826000607F09307070895A1E00E940806DE2E3A
:10183600EF2E0895C8DFED19FE09DE2EEF2EE0919A
:101846000E07F0910F07DE16EF06089589DFE0E236
:10185600F0E0EA1BFB0BE0930607F0930707E09125
:101866000807F0910907FA93EA93E0910A07F091C5
:101876000B07FA93EA93EA92DA92A5DFFA93EA93D0
:10188600A1E0B0E00E947705D0920807E092090730
:101896009ADFE0930A07F0930B0708950E94080663
:1018A6005E2E6F2EA52DB62DAD19BE09E4E0F0E033
:1018B6000E94740DE050FF4FDE2EEF2EE0E0F1E0C7
:1018C600DE16EF060895E0E0F1E0ED19FE09DE2EE2
:1018D600EF2E0895FA93EA93E7E0F0E0FA93EA939D
:1018E6000895E3E1F0E0F6CFACE40E942805E4E1D8
:1018F600F0E0F0CFEAE0F0E0DE16EF060895AD2D59
:10190600BE2DEAE0F0E00E94740D5E2E6F2EAAE076
:10191600B0E00E945C0DDE1AEF0A0895E7E0F0E001
:10192600FA93EA93AD2DA05D0895E0E4F0E0FA9312
:10193600EA930895E0E0F0E0FA93EA930895A1E0CF
:10194600B0E00E94E504F1CFEFE0F0E0FA93EA930D
:101956000895EEE1F0E0FA93EA930895E2E2F0E00A
:10196600FA93EA930895E1E3F0E0FA93EA9308958F
:10197600A1E0B0E00E94E504EB2DFC2DE05CFF4FFA
:10198600FA93EA930895A1E0B0E00E94E504EB2DF6
:10199600FC2DE05CFF4FEB0DFC1DFA93EA930895D6
:1019A600A1E0B0E00E94E504EB2DFC2DE05CFF4FCA
:1019B600EB0DFC1DEB0DFC1DFA93EA930895A1E0D7
:1019C600B0E00E94E504E0E4F0E0EB19FC09FA93CC
:1019D600EA930895A1E0B0E00E94E504E0E4F0E0B7
:1019E600EB19FC09EB19FC09FA93EA930895A1E0B7
:1019F600B0E00E94E504E0E4F0E0EB19FC09EB1925
:101A0600FC09EB19FC09FA93EA930895FA93EA9311
:101A1600A2E0B0E00C945505FA93EA938BCFA0DED2
:101A2600E2E2F0E00E944E0D0E2E9ADEEEE1F0E0CC
:101A36000E94480DE02908950E94740DDE2EEF2EB7
:101A460059CF109639F080ED97E00197F1F7A895F8
:101A56001197C9F70895F195E195F0400895EE23A1
:101A66000E2EEA2F19F0EE0F0A94E9F70895EE0FFD
:101A7600FF1FEE0FFF1FEE0FFF1FEE0FFF1F089554
:101A8600EA17E1E009F0EE270895AE17BF07E1E097
:101A96000CF0EE270895EA17FB07E1E00CF0EE27BD
:101AA6000895FA9FF02DEB9FF00DEA9FE02DF10DC2
:101AB60008951CD0F6DF0EF4CEDF0895002411241D
:101AC60090E1AA0FBB1F001C111C0E1A1F0A18F466
:101AD6000E0E1F1E01C0A1609A9599F7FD01D00157
:101AE600089504D0EBDF0EF4B6DF0895E894F7FF0F
:101AF60002C0B1DF6894B7FF06C0A095B0951196F5
:101B060000F8039400FA0895E881F9816A817B81DF
:101B16000895E883F9836A837B83089500240A166F
:101B26000B0608955A934A933A932A931A930A9363
:101B360008955D814C813B812A8119810881089530
:00000001FF
